{
  "_format": "hh-sol-artifact-1",
  "contractName": "DegenToken",
  "sourceName": "contracts/DegenToken.sol",
  "abi": [
    {
      "inputs": [],
      "stateMutability": "nonpayable",
      "type": "constructor"
    },
    {
      "inputs": [],
      "name": "InvalidItem",
      "type": "error"
    },
    {
      "anonymous": false,
      "inputs": [
        {
          "indexed": true,
          "internalType": "address",
          "name": "owner",
          "type": "address"
        },
        {
          "indexed": true,
          "internalType": "address",
          "name": "spender",
          "type": "address"
        },
        {
          "indexed": false,
          "internalType": "uint256",
          "name": "value",
          "type": "uint256"
        }
      ],
      "name": "Approval",
      "type": "event"
    },
    {
      "anonymous": false,
      "inputs": [
        {
          "indexed": true,
          "internalType": "address",
          "name": "previousOwner",
          "type": "address"
        },
        {
          "indexed": true,
          "internalType": "address",
          "name": "newOwner",
          "type": "address"
        }
      ],
      "name": "OwnershipTransferred",
      "type": "event"
    },
    {
      "anonymous": false,
      "inputs": [
        {
          "indexed": true,
          "internalType": "address",
          "name": "from",
          "type": "address"
        },
        {
          "indexed": true,
          "internalType": "address",
          "name": "to",
          "type": "address"
        },
        {
          "indexed": false,
          "internalType": "uint256",
          "name": "value",
          "type": "uint256"
        }
      ],
      "name": "Transfer",
      "type": "event"
    },
    {
      "inputs": [
        {
          "internalType": "address",
          "name": "owner",
          "type": "address"
        },
        {
          "internalType": "address",
          "name": "spender",
          "type": "address"
        }
      ],
      "name": "allowance",
      "outputs": [
        {
          "internalType": "uint256",
          "name": "",
          "type": "uint256"
        }
      ],
      "stateMutability": "view",
      "type": "function"
    },
    {
      "inputs": [
        {
          "internalType": "address",
          "name": "spender",
          "type": "address"
        },
        {
          "internalType": "uint256",
          "name": "amount",
          "type": "uint256"
        }
      ],
      "name": "approve",
      "outputs": [
        {
          "internalType": "bool",
          "name": "",
          "type": "bool"
        }
      ],
      "stateMutability": "nonpayable",
      "type": "function"
    },
    {
      "inputs": [
        {
          "internalType": "address",
          "name": "account",
          "type": "address"
        }
      ],
      "name": "balanceOf",
      "outputs": [
        {
          "internalType": "uint256",
          "name": "",
          "type": "uint256"
        }
      ],
      "stateMutability": "view",
      "type": "function"
    },
    {
      "inputs": [
        {
          "internalType": "address",
          "name": "account",
          "type": "address"
        },
        {
          "internalType": "uint256",
          "name": "value",
          "type": "uint256"
        }
      ],
      "name": "burn",
      "outputs": [],
      "stateMutability": "nonpayable",
      "type": "function"
    },
    {
      "inputs": [],
      "name": "decimals",
      "outputs": [
        {
          "internalType": "uint8",
          "name": "",
          "type": "uint8"
        }
      ],
      "stateMutability": "view",
      "type": "function"
    },
    {
      "inputs": [
        {
          "internalType": "address",
          "name": "spender",
          "type": "address"
        },
        {
          "internalType": "uint256",
          "name": "subtractedValue",
          "type": "uint256"
        }
      ],
      "name": "decreaseAllowance",
      "outputs": [
        {
          "internalType": "bool",
          "name": "",
          "type": "bool"
        }
      ],
      "stateMutability": "nonpayable",
      "type": "function"
    },
    {
      "inputs": [
        {
          "internalType": "address",
          "name": "spender",
          "type": "address"
        },
        {
          "internalType": "uint256",
          "name": "addedValue",
          "type": "uint256"
        }
      ],
      "name": "increaseAllowance",
      "outputs": [
        {
          "internalType": "bool",
          "name": "",
          "type": "bool"
        }
      ],
      "stateMutability": "nonpayable",
      "type": "function"
    },
    {
      "inputs": [
        {
          "internalType": "address",
          "name": "to",
          "type": "address"
        },
        {
          "internalType": "uint256",
          "name": "amount",
          "type": "uint256"
        }
      ],
      "name": "mint",
      "outputs": [],
      "stateMutability": "nonpayable",
      "type": "function"
    },
    {
      "inputs": [],
      "name": "name",
      "outputs": [
        {
          "internalType": "string",
          "name": "",
          "type": "string"
        }
      ],
      "stateMutability": "view",
      "type": "function"
    },
    {
      "inputs": [],
      "name": "owner",
      "outputs": [
        {
          "internalType": "address",
          "name": "",
          "type": "address"
        }
      ],
      "stateMutability": "view",
      "type": "function"
    },
    {
      "inputs": [
        {
          "internalType": "enum DegenToken.InGameItems",
          "name": "_ingame",
          "type": "uint8"
        }
      ],
      "name": "redeemTokens",
      "outputs": [],
      "stateMutability": "nonpayable",
      "type": "function"
    },
    {
      "inputs": [],
      "name": "renounceOwnership",
      "outputs": [],
      "stateMutability": "nonpayable",
      "type": "function"
    },
    {
      "inputs": [],
      "name": "symbol",
      "outputs": [
        {
          "internalType": "string",
          "name": "",
          "type": "string"
        }
      ],
      "stateMutability": "view",
      "type": "function"
    },
    {
      "inputs": [],
      "name": "totalSupply",
      "outputs": [
        {
          "internalType": "uint256",
          "name": "",
          "type": "uint256"
        }
      ],
      "stateMutability": "view",
      "type": "function"
    },
    {
      "inputs": [
        {
          "internalType": "address",
          "name": "to",
          "type": "address"
        },
        {
          "internalType": "uint256",
          "name": "amount",
          "type": "uint256"
        }
      ],
      "name": "transfer",
      "outputs": [
        {
          "internalType": "bool",
          "name": "",
          "type": "bool"
        }
      ],
      "stateMutability": "nonpayable",
      "type": "function"
    },
    {
      "inputs": [
        {
          "internalType": "address",
          "name": "from",
          "type": "address"
        },
        {
          "internalType": "address",
          "name": "to",
          "type": "address"
        },
        {
          "internalType": "uint256",
          "name": "amount",
          "type": "uint256"
        }
      ],
      "name": "transferFrom",
      "outputs": [
        {
          "internalType": "bool",
          "name": "",
          "type": "bool"
        }
      ],
      "stateMutability": "nonpayable",
      "type": "function"
    },
    {
      "inputs": [
        {
          "internalType": "address",
          "name": "newOwner",
          "type": "address"
        }
      ],
      "name": "transferOwnership",
      "outputs": [],
      "stateMutability": "nonpayable",
      "type": "function"
    }
  ],
  "bytecode": "0x60806040523480156200001157600080fd5b506040518060400160405280600581526020017f446567656e0000000000000000000000000000000000000000000000000000008152506040518060400160405280600381526020017f44474e000000000000000000000000000000000000000000000000000000000081525081600390816200008f919062000412565b508060049081620000a1919062000412565b505050620000c4620000b8620000ca60201b60201c565b620000d260201b60201c565b620004f9565b600033905090565b6000600560009054906101000a900473ffffffffffffffffffffffffffffffffffffffff16905081600560006101000a81548173ffffffffffffffffffffffffffffffffffffffff021916908373ffffffffffffffffffffffffffffffffffffffff1602179055508173ffffffffffffffffffffffffffffffffffffffff168173ffffffffffffffffffffffffffffffffffffffff167f8be0079c531659141344cd1fd0a4f28419497f9722a3daafe3b4186f6b6457e060405160405180910390a35050565b600081519050919050565b7f4e487b7100000000000000000000000000000000000000000000000000000000600052604160045260246000fd5b7f4e487b7100000000000000000000000000000000000000000000000000000000600052602260045260246000fd5b600060028204905060018216806200021a57607f821691505b60208210810362000230576200022f620001d2565b5b50919050565b60008190508160005260206000209050919050565b60006020601f8301049050919050565b600082821b905092915050565b6000600883026200029a7fffffffffffffffffffffffffffffffffffffffffffffffffffffffffffffffff826200025b565b620002a686836200025b565b95508019841693508086168417925050509392505050565b6000819050919050565b6000819050919050565b6000620002f3620002ed620002e784620002be565b620002c8565b620002be565b9050919050565b6000819050919050565b6200030f83620002d2565b620003276200031e82620002fa565b84845462000268565b825550505050565b600090565b6200033e6200032f565b6200034b81848462000304565b505050565b5b8181101562000373576200036760008262000334565b60018101905062000351565b5050565b601f821115620003c2576200038c8162000236565b62000397846200024b565b81016020851015620003a7578190505b620003bf620003b6856200024b565b83018262000350565b50505b505050565b600082821c905092915050565b6000620003e760001984600802620003c7565b1980831691505092915050565b6000620004028383620003d4565b9150826002028217905092915050565b6200041d8262000198565b67ffffffffffffffff811115620004395762000438620001a3565b5b62000445825462000201565b6200045282828562000377565b600060209050601f8311600181146200048a576000841562000475578287015190505b620004818582620003f4565b865550620004f1565b601f1984166200049a8662000236565b60005b82811015620004c4578489015182556001820191506020850194506020810190506200049d565b86831015620004e45784890151620004e0601f891682620003d4565b8355505b6001600288020188555050505b505050505050565b611d6080620005096000396000f3fe608060405234801561001057600080fd5b506004361061010b5760003560e01c806370a08231116100a25780639dc29fac116100715780639dc29fac146102a8578063a457c2d7146102c4578063a9059cbb146102f4578063dd62ed3e14610324578063f2fde38b146103545761010b565b806370a0823114610232578063715018a6146102625780638da5cb5b1461026c57806395d89b411461028a5761010b565b8063313ce567116100de578063313ce567146101ac57806339509351146101ca57806340c10f19146101fa57806350aed53e146102165761010b565b806306fdde0314610110578063095ea7b31461012e57806318160ddd1461015e57806323b872dd1461017c575b600080fd5b610118610370565b6040516101259190611304565b60405180910390f35b610148600480360381019061014391906113bf565b610402565b604051610155919061141a565b60405180910390f35b610166610425565b6040516101739190611444565b60405180910390f35b6101966004803603810190610191919061145f565b61042f565b6040516101a3919061141a565b60405180910390f35b6101b461045e565b6040516101c191906114ce565b60405180910390f35b6101e460048036038101906101df91906113bf565b610467565b6040516101f1919061141a565b60405180910390f35b610214600480360381019061020f91906113bf565b61049e565b005b610230600480360381019061022b919061150e565b6104b4565b005b61024c6004803603810190610247919061153b565b610666565b6040516102599190611444565b60405180910390f35b61026a6106ae565b005b6102746106c2565b6040516102819190611577565b60405180910390f35b6102926106ec565b60405161029f9190611304565b60405180910390f35b6102c260048036038101906102bd91906113bf565b61077e565b005b6102de60048036038101906102d991906113bf565b61078c565b6040516102eb919061141a565b60405180910390f35b61030e600480360381019061030991906113bf565b610803565b60405161031b919061141a565b60405180910390f35b61033e60048036038101906103399190611592565b610826565b60405161034b9190611444565b60405180910390f35b61036e6004803603810190610369919061153b565b6108ad565b005b60606003805461037f90611601565b80601f01602080910402602001604051908101604052809291908181526020018280546103ab90611601565b80156103f85780601f106103cd576101008083540402835291602001916103f8565b820191906000526020600020905b8154815290600101906020018083116103db57829003601f168201915b5050505050905090565b60008061040d610930565b905061041a818585610938565b600191505092915050565b6000600254905090565b60008061043a610930565b9050610447858285610b01565b610452858585610b8d565b60019150509392505050565b60006012905090565b600080610472610930565b90506104938185856104848589610826565b61048e9190611661565b610938565b600191505092915050565b6104a6610e03565b6104b08282610e81565b5050565b6005808111156104c7576104c6611695565b5b8160058111156104da576104d9611695565b5b1115610512576040517f4f66a31200000000000000000000000000000000000000000000000000000000815260040160405180910390fd5b6000600581111561052657610525611695565b5b81600581111561053957610538611695565b5b0361054b5761054a33610190610e81565b5b6001600581111561055f5761055e611695565b5b81600581111561057257610571611695565b5b03610583576105823360c8610e81565b5b6002600581111561059757610596611695565b5b8160058111156105aa576105a9611695565b5b036105bb576105ba336046610e81565b5b600360058111156105cf576105ce611695565b5b8160058111156105e2576105e1611695565b5b036105f3576105f2336064610e81565b5b6004600581111561060757610606611695565b5b81600581111561061a57610619611695565b5b0361062b5761062a3360fa610e81565b5b60058081111561063e5761063d611695565b5b81600581111561065157610650611695565b5b03610663576106623361012c610e81565b5b50565b60008060008373ffffffffffffffffffffffffffffffffffffffff1673ffffffffffffffffffffffffffffffffffffffff168152602001908152602001600020549050919050565b6106b6610e03565b6106c06000610fd7565b565b6000600560009054906101000a900473ffffffffffffffffffffffffffffffffffffffff16905090565b6060600480546106fb90611601565b80601f016020809104026020016040519081016040528092919081815260200182805461072790611601565b80156107745780601f1061074957610100808354040283529160200191610774565b820191906000526020600020905b81548152906001019060200180831161075757829003601f168201915b5050505050905090565b610788828261109d565b5050565b600080610797610930565b905060006107a58286610826565b9050838110156107ea576040517f08c379a00000000000000000000000000000000000000000000000000000000081526004016107e190611736565b60405180910390fd5b6107f78286868403610938565b60019250505092915050565b60008061080e610930565b905061081b818585610b8d565b600191505092915050565b6000600160008473ffffffffffffffffffffffffffffffffffffffff1673ffffffffffffffffffffffffffffffffffffffff16815260200190815260200160002060008373ffffffffffffffffffffffffffffffffffffffff1673ffffffffffffffffffffffffffffffffffffffff16815260200190815260200160002054905092915050565b6108b5610e03565b600073ffffffffffffffffffffffffffffffffffffffff168173ffffffffffffffffffffffffffffffffffffffff1603610924576040517f08c379a000000000000000000000000000000000000000000000000000000000815260040161091b906117c8565b60405180910390fd5b61092d81610fd7565b50565b600033905090565b600073ffffffffffffffffffffffffffffffffffffffff168373ffffffffffffffffffffffffffffffffffffffff16036109a7576040517f08c379a000000000000000000000000000000000000000000000000000000000815260040161099e9061185a565b60405180910390fd5b600073ffffffffffffffffffffffffffffffffffffffff168273ffffffffffffffffffffffffffffffffffffffff1603610a16576040517f08c379a0000000000000000000000000000000000000000000000000000000008152600401610a0d906118ec565b60405180910390fd5b80600160008573ffffffffffffffffffffffffffffffffffffffff1673ffffffffffffffffffffffffffffffffffffffff16815260200190815260200160002060008473ffffffffffffffffffffffffffffffffffffffff1673ffffffffffffffffffffffffffffffffffffffff168152602001908152602001600020819055508173ffffffffffffffffffffffffffffffffffffffff168373ffffffffffffffffffffffffffffffffffffffff167f8c5be1e5ebec7d5bd14f71427d1e84f3dd0314c0f7b2291e5b200ac8c7c3b92583604051610af49190611444565b60405180910390a3505050565b6000610b0d8484610826565b90507fffffffffffffffffffffffffffffffffffffffffffffffffffffffffffffffff8114610b875781811015610b79576040517f08c379a0000000000000000000000000000000000000000000000000000000008152600401610b7090611958565b60405180910390fd5b610b868484848403610938565b5b50505050565b600073ffffffffffffffffffffffffffffffffffffffff168373ffffffffffffffffffffffffffffffffffffffff1603610bfc576040517f08c379a0000000000000000000000000000000000000000000000000000000008152600401610bf3906119ea565b60405180910390fd5b600073ffffffffffffffffffffffffffffffffffffffff168273ffffffffffffffffffffffffffffffffffffffff1603610c6b576040517f08c379a0000000000000000000000000000000000000000000000000000000008152600401610c6290611a7c565b60405180910390fd5b610c7683838361126a565b60008060008573ffffffffffffffffffffffffffffffffffffffff1673ffffffffffffffffffffffffffffffffffffffff16815260200190815260200160002054905081811015610cfc576040517f08c379a0000000000000000000000000000000000000000000000000000000008152600401610cf390611b0e565b60405180910390fd5b8181036000808673ffffffffffffffffffffffffffffffffffffffff1673ffffffffffffffffffffffffffffffffffffffff16815260200190815260200160002081905550816000808573ffffffffffffffffffffffffffffffffffffffff1673ffffffffffffffffffffffffffffffffffffffff168152602001908152602001600020600082825401925050819055508273ffffffffffffffffffffffffffffffffffffffff168473ffffffffffffffffffffffffffffffffffffffff167fddf252ad1be2c89b69c2b068fc378daa952ba7f163c4a11628f55a4df523b3ef84604051610dea9190611444565b60405180910390a3610dfd84848461126f565b50505050565b610e0b610930565b73ffffffffffffffffffffffffffffffffffffffff16610e296106c2565b73ffffffffffffffffffffffffffffffffffffffff1614610e7f576040517f08c379a0000000000000000000000000000000000000000000000000000000008152600401610e7690611b7a565b60405180910390fd5b565b600073ffffffffffffffffffffffffffffffffffffffff168273ffffffffffffffffffffffffffffffffffffffff1603610ef0576040517f08c379a0000000000000000000000000000000000000000000000000000000008152600401610ee790611be6565b60405180910390fd5b610efc6000838361126a565b8060026000828254610f0e9190611661565b92505081905550806000808473ffffffffffffffffffffffffffffffffffffffff1673ffffffffffffffffffffffffffffffffffffffff168152602001908152602001600020600082825401925050819055508173ffffffffffffffffffffffffffffffffffffffff16600073ffffffffffffffffffffffffffffffffffffffff167fddf252ad1be2c89b69c2b068fc378daa952ba7f163c4a11628f55a4df523b3ef83604051610fbf9190611444565b60405180910390a3610fd36000838361126f565b5050565b6000600560009054906101000a900473ffffffffffffffffffffffffffffffffffffffff16905081600560006101000a81548173ffffffffffffffffffffffffffffffffffffffff021916908373ffffffffffffffffffffffffffffffffffffffff1602179055508173ffffffffffffffffffffffffffffffffffffffff168173ffffffffffffffffffffffffffffffffffffffff167f8be0079c531659141344cd1fd0a4f28419497f9722a3daafe3b4186f6b6457e060405160405180910390a35050565b600073ffffffffffffffffffffffffffffffffffffffff168273ffffffffffffffffffffffffffffffffffffffff160361110c576040517f08c379a000000000000000000000000000000000000000000000000000000000815260040161110390611c78565b60405180910390fd5b6111188260008361126a565b60008060008473ffffffffffffffffffffffffffffffffffffffff1673ffffffffffffffffffffffffffffffffffffffff1681526020019081526020016000205490508181101561119e576040517f08c379a000000000000000000000000000000000000000000000000000000000815260040161119590611d0a565b60405180910390fd5b8181036000808573ffffffffffffffffffffffffffffffffffffffff1673ffffffffffffffffffffffffffffffffffffffff1681526020019081526020016000208190555081600260008282540392505081905550600073ffffffffffffffffffffffffffffffffffffffff168373ffffffffffffffffffffffffffffffffffffffff167fddf252ad1be2c89b69c2b068fc378daa952ba7f163c4a11628f55a4df523b3ef846040516112519190611444565b60405180910390a36112658360008461126f565b505050565b505050565b505050565b600081519050919050565b600082825260208201905092915050565b60005b838110156112ae578082015181840152602081019050611293565b60008484015250505050565b6000601f19601f8301169050919050565b60006112d682611274565b6112e0818561127f565b93506112f0818560208601611290565b6112f9816112ba565b840191505092915050565b6000602082019050818103600083015261131e81846112cb565b905092915050565b600080fd5b600073ffffffffffffffffffffffffffffffffffffffff82169050919050565b60006113568261132b565b9050919050565b6113668161134b565b811461137157600080fd5b50565b6000813590506113838161135d565b92915050565b6000819050919050565b61139c81611389565b81146113a757600080fd5b50565b6000813590506113b981611393565b92915050565b600080604083850312156113d6576113d5611326565b5b60006113e485828601611374565b92505060206113f5858286016113aa565b9150509250929050565b60008115159050919050565b611414816113ff565b82525050565b600060208201905061142f600083018461140b565b92915050565b61143e81611389565b82525050565b60006020820190506114596000830184611435565b92915050565b60008060006060848603121561147857611477611326565b5b600061148686828701611374565b935050602061149786828701611374565b92505060406114a8868287016113aa565b9150509250925092565b600060ff82169050919050565b6114c8816114b2565b82525050565b60006020820190506114e360008301846114bf565b92915050565b600681106114f657600080fd5b50565b600081359050611508816114e9565b92915050565b60006020828403121561152457611523611326565b5b6000611532848285016114f9565b91505092915050565b60006020828403121561155157611550611326565b5b600061155f84828501611374565b91505092915050565b6115718161134b565b82525050565b600060208201905061158c6000830184611568565b92915050565b600080604083850312156115a9576115a8611326565b5b60006115b785828601611374565b92505060206115c885828601611374565b9150509250929050565b7f4e487b7100000000000000000000000000000000000000000000000000000000600052602260045260246000fd5b6000600282049050600182168061161957607f821691505b60208210810361162c5761162b6115d2565b5b50919050565b7f4e487b7100000000000000000000000000000000000000000000000000000000600052601160045260246000fd5b600061166c82611389565b915061167783611389565b925082820190508082111561168f5761168e611632565b5b92915050565b7f4e487b7100000000000000000000000000000000000000000000000000000000600052602160045260246000fd5b7f45524332303a2064656372656173656420616c6c6f77616e63652062656c6f7760008201527f207a65726f000000000000000000000000000000000000000000000000000000602082015250565b600061172060258361127f565b915061172b826116c4565b604082019050919050565b6000602082019050818103600083015261174f81611713565b9050919050565b7f4f776e61626c653a206e6577206f776e657220697320746865207a65726f206160008201527f6464726573730000000000000000000000000000000000000000000000000000602082015250565b60006117b260268361127f565b91506117bd82611756565b604082019050919050565b600060208201905081810360008301526117e1816117a5565b9050919050565b7f45524332303a20617070726f76652066726f6d20746865207a65726f2061646460008201527f7265737300000000000000000000000000000000000000000000000000000000602082015250565b600061184460248361127f565b915061184f826117e8565b604082019050919050565b6000602082019050818103600083015261187381611837565b9050919050565b7f45524332303a20617070726f766520746f20746865207a65726f20616464726560008201527f7373000000000000000000000000000000000000000000000000000000000000602082015250565b60006118d660228361127f565b91506118e18261187a565b604082019050919050565b60006020820190508181036000830152611905816118c9565b9050919050565b7f45524332303a20696e73756666696369656e7420616c6c6f77616e6365000000600082015250565b6000611942601d8361127f565b915061194d8261190c565b602082019050919050565b6000602082019050818103600083015261197181611935565b9050919050565b7f45524332303a207472616e736665722066726f6d20746865207a65726f20616460008201527f6472657373000000000000000000000000000000000000000000000000000000602082015250565b60006119d460258361127f565b91506119df82611978565b604082019050919050565b60006020820190508181036000830152611a03816119c7565b9050919050565b7f45524332303a207472616e7366657220746f20746865207a65726f206164647260008201527f6573730000000000000000000000000000000000000000000000000000000000602082015250565b6000611a6660238361127f565b9150611a7182611a0a565b604082019050919050565b60006020820190508181036000830152611a9581611a59565b9050919050565b7f45524332303a207472616e7366657220616d6f756e742065786365656473206260008201527f616c616e63650000000000000000000000000000000000000000000000000000602082015250565b6000611af860268361127f565b9150611b0382611a9c565b604082019050919050565b60006020820190508181036000830152611b2781611aeb565b9050919050565b7f4f776e61626c653a2063616c6c6572206973206e6f7420746865206f776e6572600082015250565b6000611b6460208361127f565b9150611b6f82611b2e565b602082019050919050565b60006020820190508181036000830152611b9381611b57565b9050919050565b7f45524332303a206d696e7420746f20746865207a65726f206164647265737300600082015250565b6000611bd0601f8361127f565b9150611bdb82611b9a565b602082019050919050565b60006020820190508181036000830152611bff81611bc3565b9050919050565b7f45524332303a206275726e2066726f6d20746865207a65726f2061646472657360008201527f7300000000000000000000000000000000000000000000000000000000000000602082015250565b6000611c6260218361127f565b9150611c6d82611c06565b604082019050919050565b60006020820190508181036000830152611c9181611c55565b9050919050565b7f45524332303a206275726e20616d6f756e7420657863656564732062616c616e60008201527f6365000000000000000000000000000000000000000000000000000000000000602082015250565b6000611cf460228361127f565b9150611cff82611c98565b604082019050919050565b60006020820190508181036000830152611d2381611ce7565b905091905056fea26469706673582212206baff523222fb21278681656e1e54c2cec917b18328d80becc72aae5347b14d164736f6c63430008120033",
  "linkReferences": {},
  "deployedLinkReferences": {}
}