{
  "_format": "hh-sol-artifact-1",
  "contractName": "DegenToken",
  "sourceName": "contracts/DegenToken.sol",
  "abi": [
    {
      "inputs": [],
      "stateMutability": "nonpayable",
      "type": "constructor"
    },
    {
      "inputs": [],
      "name": "InvalidItem",
      "type": "error"
    },
    {
      "anonymous": false,
      "inputs": [
        {
          "indexed": true,
          "internalType": "address",
          "name": "owner",
          "type": "address"
        },
        {
          "indexed": true,
          "internalType": "address",
          "name": "spender",
          "type": "address"
        },
        {
          "indexed": false,
          "internalType": "uint256",
          "name": "value",
          "type": "uint256"
        }
      ],
      "name": "Approval",
      "type": "event"
    },
    {
      "anonymous": false,
      "inputs": [
        {
          "indexed": true,
          "internalType": "address",
          "name": "previousOwner",
          "type": "address"
        },
        {
          "indexed": true,
          "internalType": "address",
          "name": "newOwner",
          "type": "address"
        }
      ],
      "name": "OwnershipTransferred",
      "type": "event"
    },
    {
      "anonymous": false,
      "inputs": [
        {
          "indexed": true,
          "internalType": "address",
          "name": "from",
          "type": "address"
        },
        {
          "indexed": true,
          "internalType": "address",
          "name": "to",
          "type": "address"
        },
        {
          "indexed": false,
          "internalType": "uint256",
          "name": "value",
          "type": "uint256"
        }
      ],
      "name": "Transfer",
      "type": "event"
    },
    {
      "inputs": [
        {
          "internalType": "address",
          "name": "owner",
          "type": "address"
        },
        {
          "internalType": "address",
          "name": "spender",
          "type": "address"
        }
      ],
      "name": "allowance",
      "outputs": [
        {
          "internalType": "uint256",
          "name": "",
          "type": "uint256"
        }
      ],
      "stateMutability": "view",
      "type": "function"
    },
    {
      "inputs": [
        {
          "internalType": "address",
          "name": "spender",
          "type": "address"
        },
        {
          "internalType": "uint256",
          "name": "amount",
          "type": "uint256"
        }
      ],
      "name": "approve",
      "outputs": [
        {
          "internalType": "bool",
          "name": "",
          "type": "bool"
        }
      ],
      "stateMutability": "nonpayable",
      "type": "function"
    },
    {
      "inputs": [
        {
          "internalType": "address",
          "name": "account",
          "type": "address"
        }
      ],
      "name": "balanceOf",
      "outputs": [
        {
          "internalType": "uint256",
          "name": "",
          "type": "uint256"
        }
      ],
      "stateMutability": "view",
      "type": "function"
    },
    {
      "inputs": [
        {
          "internalType": "uint256",
          "name": "value",
          "type": "uint256"
        }
      ],
      "name": "burn",
      "outputs": [],
      "stateMutability": "nonpayable",
      "type": "function"
    },
    {
      "inputs": [],
      "name": "decimals",
      "outputs": [
        {
          "internalType": "uint8",
          "name": "",
          "type": "uint8"
        }
      ],
      "stateMutability": "view",
      "type": "function"
    },
    {
      "inputs": [
        {
          "internalType": "address",
          "name": "spender",
          "type": "address"
        },
        {
          "internalType": "uint256",
          "name": "subtractedValue",
          "type": "uint256"
        }
      ],
      "name": "decreaseAllowance",
      "outputs": [
        {
          "internalType": "bool",
          "name": "",
          "type": "bool"
        }
      ],
      "stateMutability": "nonpayable",
      "type": "function"
    },
    {
      "inputs": [
        {
          "internalType": "address",
          "name": "_player",
          "type": "address"
        },
        {
          "internalType": "string",
          "name": "_item",
          "type": "string"
        }
      ],
      "name": "giveItem",
      "outputs": [],
      "stateMutability": "nonpayable",
      "type": "function"
    },
    {
      "inputs": [
        {
          "internalType": "address",
          "name": "spender",
          "type": "address"
        },
        {
          "internalType": "uint256",
          "name": "addedValue",
          "type": "uint256"
        }
      ],
      "name": "increaseAllowance",
      "outputs": [
        {
          "internalType": "bool",
          "name": "",
          "type": "bool"
        }
      ],
      "stateMutability": "nonpayable",
      "type": "function"
    },
    {
      "inputs": [
        {
          "internalType": "address",
          "name": "to",
          "type": "address"
        },
        {
          "internalType": "uint256",
          "name": "amount",
          "type": "uint256"
        }
      ],
      "name": "mint",
      "outputs": [],
      "stateMutability": "nonpayable",
      "type": "function"
    },
    {
      "inputs": [
        {
          "internalType": "address",
          "name": "_player",
          "type": "address"
        },
        {
          "internalType": "uint256",
          "name": "_newLevel",
          "type": "uint256"
        }
      ],
      "name": "moveLevel",
      "outputs": [],
      "stateMutability": "nonpayable",
      "type": "function"
    },
    {
      "inputs": [],
      "name": "name",
      "outputs": [
        {
          "internalType": "string",
          "name": "",
          "type": "string"
        }
      ],
      "stateMutability": "view",
      "type": "function"
    },
    {
      "inputs": [],
      "name": "owner",
      "outputs": [
        {
          "internalType": "address",
          "name": "",
          "type": "address"
        }
      ],
      "stateMutability": "view",
      "type": "function"
    },
    {
      "inputs": [
        {
          "internalType": "string",
          "name": "_item",
          "type": "string"
        }
      ],
      "name": "redeemTokens",
      "outputs": [],
      "stateMutability": "nonpayable",
      "type": "function"
    },
    {
      "inputs": [],
      "name": "register",
      "outputs": [
        {
          "internalType": "bool",
          "name": "success",
          "type": "bool"
        }
      ],
      "stateMutability": "view",
      "type": "function"
    },
    {
      "inputs": [],
      "name": "renounceOwnership",
      "outputs": [],
      "stateMutability": "nonpayable",
      "type": "function"
    },
    {
      "inputs": [],
      "name": "symbol",
      "outputs": [
        {
          "internalType": "string",
          "name": "",
          "type": "string"
        }
      ],
      "stateMutability": "view",
      "type": "function"
    },
    {
      "inputs": [],
      "name": "totalSupply",
      "outputs": [
        {
          "internalType": "uint256",
          "name": "",
          "type": "uint256"
        }
      ],
      "stateMutability": "view",
      "type": "function"
    },
    {
      "inputs": [
        {
          "internalType": "address",
          "name": "to",
          "type": "address"
        },
        {
          "internalType": "uint256",
          "name": "amount",
          "type": "uint256"
        }
      ],
      "name": "transfer",
      "outputs": [
        {
          "internalType": "bool",
          "name": "",
          "type": "bool"
        }
      ],
      "stateMutability": "nonpayable",
      "type": "function"
    },
    {
      "inputs": [
        {
          "internalType": "address",
          "name": "from",
          "type": "address"
        },
        {
          "internalType": "address",
          "name": "to",
          "type": "address"
        },
        {
          "internalType": "uint256",
          "name": "amount",
          "type": "uint256"
        }
      ],
      "name": "transferFrom",
      "outputs": [
        {
          "internalType": "bool",
          "name": "",
          "type": "bool"
        }
      ],
      "stateMutability": "nonpayable",
      "type": "function"
    },
    {
      "inputs": [
        {
          "internalType": "address",
          "name": "newOwner",
          "type": "address"
        }
      ],
      "name": "transferOwnership",
      "outputs": [],
      "stateMutability": "nonpayable",
      "type": "function"
    }
  ],
  "bytecode": "0x60806040523480156200001157600080fd5b506040518060400160405280600581526020017f446567656e0000000000000000000000000000000000000000000000000000008152506040518060400160405280600381526020017f44474e000000000000000000000000000000000000000000000000000000000081525081600390816200008f919062000412565b508060049081620000a1919062000412565b505050620000c4620000b8620000ca60201b60201c565b620000d260201b60201c565b620004f9565b600033905090565b6000600560009054906101000a900473ffffffffffffffffffffffffffffffffffffffff16905081600560006101000a81548173ffffffffffffffffffffffffffffffffffffffff021916908373ffffffffffffffffffffffffffffffffffffffff1602179055508173ffffffffffffffffffffffffffffffffffffffff168173ffffffffffffffffffffffffffffffffffffffff167f8be0079c531659141344cd1fd0a4f28419497f9722a3daafe3b4186f6b6457e060405160405180910390a35050565b600081519050919050565b7f4e487b7100000000000000000000000000000000000000000000000000000000600052604160045260246000fd5b7f4e487b7100000000000000000000000000000000000000000000000000000000600052602260045260246000fd5b600060028204905060018216806200021a57607f821691505b60208210810362000230576200022f620001d2565b5b50919050565b60008190508160005260206000209050919050565b60006020601f8301049050919050565b600082821b905092915050565b6000600883026200029a7fffffffffffffffffffffffffffffffffffffffffffffffffffffffffffffffff826200025b565b620002a686836200025b565b95508019841693508086168417925050509392505050565b6000819050919050565b6000819050919050565b6000620002f3620002ed620002e784620002be565b620002c8565b620002be565b9050919050565b6000819050919050565b6200030f83620002d2565b620003276200031e82620002fa565b84845462000268565b825550505050565b600090565b6200033e6200032f565b6200034b81848462000304565b505050565b5b8181101562000373576200036760008262000334565b60018101905062000351565b5050565b601f821115620003c2576200038c8162000236565b62000397846200024b565b81016020851015620003a7578190505b620003bf620003b6856200024b565b83018262000350565b50505b505050565b600082821c905092915050565b6000620003e760001984600802620003c7565b1980831691505092915050565b6000620004028383620003d4565b9150826002028217905092915050565b6200041d8262000198565b67ffffffffffffffff811115620004395762000438620001a3565b5b62000445825462000201565b6200045282828562000377565b600060209050601f8311600181146200048a576000841562000475578287015190505b620004818582620003f4565b865550620004f1565b601f1984166200049a8662000236565b60005b82811015620004c4578489015182556001820191506020850194506020810190506200049d565b86831015620004e45784890151620004e0601f891682620003d4565b8355505b6001600288020188555050505b505050505050565b61272480620005096000396000f3fe608060405234801561001057600080fd5b506004361061012c5760003560e01c806370a08231116100ad57806395d89b411161007157806395d89b411461031d578063a457c2d71461033b578063a9059cbb1461036b578063dd62ed3e1461039b578063f2fde38b146103cb5761012c565b806370a082311461028d578063715018a6146102bd578063727e0e36146102c75780637b05d785146102e35780638da5cb5b146102ff5761012c565b8063313ce567116100f4578063313ce567146101eb578063395093511461020957806340c10f191461023957806342966c68146102555780635c0bbd67146102715761012c565b806306fdde0314610131578063095ea7b31461014f57806318160ddd1461017f5780631aa3a0081461019d57806323b872dd146101bb575b600080fd5b6101396103e7565b60405161014691906116f0565b60405180910390f35b610169600480360381019061016491906117ba565b610479565b6040516101769190611815565b60405180910390f35b61018761049c565b604051610194919061183f565b60405180910390f35b6101a56104a6565b6040516101b29190611815565b60405180910390f35b6101d560048036038101906101d0919061185a565b6104ff565b6040516101e29190611815565b60405180910390f35b6101f361052e565b60405161020091906118c9565b60405180910390f35b610223600480360381019061021e91906117ba565b610537565b6040516102309190611815565b60405180910390f35b610253600480360381019061024e91906117ba565b61056e565b005b61026f600480360381019061026a91906118e4565b610617565b005b61028b600480360381019061028691906117ba565b6106b7565b005b6102a760048036038101906102a29190611911565b61071b565b6040516102b4919061183f565b60405180910390f35b6102c5610763565b005b6102e160048036038101906102dc9190611a73565b610777565b005b6102fd60048036038101906102f89190611acf565b6107e4565b005b610307610abc565b6040516103149190611b27565b60405180910390f35b610325610ae6565b60405161033291906116f0565b60405180910390f35b610355600480360381019061035091906117ba565b610b78565b6040516103629190611815565b60405180910390f35b610385600480360381019061038091906117ba565b610bef565b6040516103929190611815565b60405180910390f35b6103b560048036038101906103b09190611b42565b610c12565b6040516103c2919061183f565b60405180910390f35b6103e560048036038101906103e09190611911565b610c99565b005b6060600380546103f690611bb1565b80601f016020809104026020016040519081016040528092919081815260200182805461042290611bb1565b801561046f5780601f106104445761010080835404028352916020019161046f565b820191906000526020600020905b81548152906001019060200180831161045257829003601f168201915b5050505050905090565b600080610484610d1c565b9050610491818585610d24565b600191505092915050565b6000600254905090565b600060011515600660003373ffffffffffffffffffffffffffffffffffffffff1673ffffffffffffffffffffffffffffffffffffffff16815260200190815260200160002060009054906101000a905050506001905090565b60008061050a610d1c565b9050610517858285610eed565b610522858585610f79565b60019150509392505050565b60006012905090565b600080610542610d1c565b90506105638185856105548589610c12565b61055e9190611c11565b610d24565b600191505092915050565b6105766111ef565b60001515600660008473ffffffffffffffffffffffffffffffffffffffff1673ffffffffffffffffffffffffffffffffffffffff16815260200190815260200160002060009054906101000a900460ff16151503610609576040517f08c379a000000000000000000000000000000000000000000000000000000000815260040161060090611c91565b60405180910390fd5b610613828261126d565b5050565b60001515600660003373ffffffffffffffffffffffffffffffffffffffff1673ffffffffffffffffffffffffffffffffffffffff16815260200190815260200160002060009054906101000a900460ff161515036106aa576040517f08c379a00000000000000000000000000000000000000000000000000000000081526004016106a190611c91565b60405180910390fd5b6106b433826113c3565b50565b6106bf6111ef565b6000600860008473ffffffffffffffffffffffffffffffffffffffff1673ffffffffffffffffffffffffffffffffffffffff168152602001908152602001600020905081816001018190555061071633603261126d565b505050565b60008060008373ffffffffffffffffffffffffffffffffffffffff1673ffffffffffffffffffffffffffffffffffffffff168152602001908152602001600020549050919050565b61076b6111ef565b6107756000611590565b565b61077f6111ef565b6000600860008473ffffffffffffffffffffffffffffffffffffffff1673ffffffffffffffffffffffffffffffffffffffff1681526020019081526020016000209050818160020190816107d39190611e5d565b506107df33603261126d565b505050565b6000600860003373ffffffffffffffffffffffffffffffffffffffff1673ffffffffffffffffffffffffffffffffffffffff16815260200190815260200160002090508060020160405160200161083b9190611fbd565b60405160208183030381529060405280519060200120826040516020016108629190612005565b604051602081830303815290604052805190602001200361088a576108893361019061126d565b5b8060020160405160200161089e9190611fbd565b60405160208183030381529060405280519060200120826040516020016108c59190612005565b60405160208183030381529060405280519060200120036108ed576108ec3361019061126d565b5b806002016040516020016109019190611fbd565b60405160208183030381529060405280519060200120826040516020016109289190612005565b60405160208183030381529060405280519060200120036109505761094f3361019061126d565b5b806002016040516020016109649190611fbd565b604051602081830303815290604052805190602001208260405160200161098b9190612005565b60405160208183030381529060405280519060200120036109b3576109b23361019061126d565b5b806002016040516020016109c79190611fbd565b60405160208183030381529060405280519060200120826040516020016109ee9190612005565b6040516020818303038152906040528051906020012003610a1657610a153361019061126d565b5b80600201604051602001610a2a9190611fbd565b6040516020818303038152906040528051906020012082604051602001610a519190612005565b6040516020818303038152906040528051906020012003610a7d57610a783361019061126d565b610ab8565b6040517f08c379a0000000000000000000000000000000000000000000000000000000008152600401610aaf90612068565b60405180910390fd5b5050565b6000600560009054906101000a900473ffffffffffffffffffffffffffffffffffffffff16905090565b606060048054610af590611bb1565b80601f0160208091040260200160405190810160405280929190818152602001828054610b2190611bb1565b8015610b6e5780601f10610b4357610100808354040283529160200191610b6e565b820191906000526020600020905b815481529060010190602001808311610b5157829003601f168201915b5050505050905090565b600080610b83610d1c565b90506000610b918286610c12565b905083811015610bd6576040517f08c379a0000000000000000000000000000000000000000000000000000000008152600401610bcd906120fa565b60405180910390fd5b610be38286868403610d24565b60019250505092915050565b600080610bfa610d1c565b9050610c07818585610f79565b600191505092915050565b6000600160008473ffffffffffffffffffffffffffffffffffffffff1673ffffffffffffffffffffffffffffffffffffffff16815260200190815260200160002060008373ffffffffffffffffffffffffffffffffffffffff1673ffffffffffffffffffffffffffffffffffffffff16815260200190815260200160002054905092915050565b610ca16111ef565b600073ffffffffffffffffffffffffffffffffffffffff168173ffffffffffffffffffffffffffffffffffffffff1603610d10576040517f08c379a0000000000000000000000000000000000000000000000000000000008152600401610d079061218c565b60405180910390fd5b610d1981611590565b50565b600033905090565b600073ffffffffffffffffffffffffffffffffffffffff168373ffffffffffffffffffffffffffffffffffffffff1603610d93576040517f08c379a0000000000000000000000000000000000000000000000000000000008152600401610d8a9061221e565b60405180910390fd5b600073ffffffffffffffffffffffffffffffffffffffff168273ffffffffffffffffffffffffffffffffffffffff1603610e02576040517f08c379a0000000000000000000000000000000000000000000000000000000008152600401610df9906122b0565b60405180910390fd5b80600160008573ffffffffffffffffffffffffffffffffffffffff1673ffffffffffffffffffffffffffffffffffffffff16815260200190815260200160002060008473ffffffffffffffffffffffffffffffffffffffff1673ffffffffffffffffffffffffffffffffffffffff168152602001908152602001600020819055508173ffffffffffffffffffffffffffffffffffffffff168373ffffffffffffffffffffffffffffffffffffffff167f8c5be1e5ebec7d5bd14f71427d1e84f3dd0314c0f7b2291e5b200ac8c7c3b92583604051610ee0919061183f565b60405180910390a3505050565b6000610ef98484610c12565b90507fffffffffffffffffffffffffffffffffffffffffffffffffffffffffffffffff8114610f735781811015610f65576040517f08c379a0000000000000000000000000000000000000000000000000000000008152600401610f5c9061231c565b60405180910390fd5b610f728484848403610d24565b5b50505050565b600073ffffffffffffffffffffffffffffffffffffffff168373ffffffffffffffffffffffffffffffffffffffff1603610fe8576040517f08c379a0000000000000000000000000000000000000000000000000000000008152600401610fdf906123ae565b60405180910390fd5b600073ffffffffffffffffffffffffffffffffffffffff168273ffffffffffffffffffffffffffffffffffffffff1603611057576040517f08c379a000000000000000000000000000000000000000000000000000000000815260040161104e90612440565b60405180910390fd5b611062838383611656565b60008060008573ffffffffffffffffffffffffffffffffffffffff1673ffffffffffffffffffffffffffffffffffffffff168152602001908152602001600020549050818110156110e8576040517f08c379a00000000000000000000000000000000000000000000000000000000081526004016110df906124d2565b60405180910390fd5b8181036000808673ffffffffffffffffffffffffffffffffffffffff1673ffffffffffffffffffffffffffffffffffffffff16815260200190815260200160002081905550816000808573ffffffffffffffffffffffffffffffffffffffff1673ffffffffffffffffffffffffffffffffffffffff168152602001908152602001600020600082825401925050819055508273ffffffffffffffffffffffffffffffffffffffff168473ffffffffffffffffffffffffffffffffffffffff167fddf252ad1be2c89b69c2b068fc378daa952ba7f163c4a11628f55a4df523b3ef846040516111d6919061183f565b60405180910390a36111e984848461165b565b50505050565b6111f7610d1c565b73ffffffffffffffffffffffffffffffffffffffff16611215610abc565b73ffffffffffffffffffffffffffffffffffffffff161461126b576040517f08c379a00000000000000000000000000000000000000000000000000000000081526004016112629061253e565b60405180910390fd5b565b600073ffffffffffffffffffffffffffffffffffffffff168273ffffffffffffffffffffffffffffffffffffffff16036112dc576040517f08c379a00000000000000000000000000000000000000000000000000000000081526004016112d3906125aa565b60405180910390fd5b6112e860008383611656565b80600260008282546112fa9190611c11565b92505081905550806000808473ffffffffffffffffffffffffffffffffffffffff1673ffffffffffffffffffffffffffffffffffffffff168152602001908152602001600020600082825401925050819055508173ffffffffffffffffffffffffffffffffffffffff16600073ffffffffffffffffffffffffffffffffffffffff167fddf252ad1be2c89b69c2b068fc378daa952ba7f163c4a11628f55a4df523b3ef836040516113ab919061183f565b60405180910390a36113bf6000838361165b565b5050565b600073ffffffffffffffffffffffffffffffffffffffff168273ffffffffffffffffffffffffffffffffffffffff1603611432576040517f08c379a00000000000000000000000000000000000000000000000000000000081526004016114299061263c565b60405180910390fd5b61143e82600083611656565b60008060008473ffffffffffffffffffffffffffffffffffffffff1673ffffffffffffffffffffffffffffffffffffffff168152602001908152602001600020549050818110156114c4576040517f08c379a00000000000000000000000000000000000000000000000000000000081526004016114bb906126ce565b60405180910390fd5b8181036000808573ffffffffffffffffffffffffffffffffffffffff1673ffffffffffffffffffffffffffffffffffffffff1681526020019081526020016000208190555081600260008282540392505081905550600073ffffffffffffffffffffffffffffffffffffffff168373ffffffffffffffffffffffffffffffffffffffff167fddf252ad1be2c89b69c2b068fc378daa952ba7f163c4a11628f55a4df523b3ef84604051611577919061183f565b60405180910390a361158b8360008461165b565b505050565b6000600560009054906101000a900473ffffffffffffffffffffffffffffffffffffffff16905081600560006101000a81548173ffffffffffffffffffffffffffffffffffffffff021916908373ffffffffffffffffffffffffffffffffffffffff1602179055508173ffffffffffffffffffffffffffffffffffffffff168173ffffffffffffffffffffffffffffffffffffffff167f8be0079c531659141344cd1fd0a4f28419497f9722a3daafe3b4186f6b6457e060405160405180910390a35050565b505050565b505050565b600081519050919050565b600082825260208201905092915050565b60005b8381101561169a57808201518184015260208101905061167f565b60008484015250505050565b6000601f19601f8301169050919050565b60006116c282611660565b6116cc818561166b565b93506116dc81856020860161167c565b6116e5816116a6565b840191505092915050565b6000602082019050818103600083015261170a81846116b7565b905092915050565b6000604051905090565b600080fd5b600080fd5b600073ffffffffffffffffffffffffffffffffffffffff82169050919050565b600061175182611726565b9050919050565b61176181611746565b811461176c57600080fd5b50565b60008135905061177e81611758565b92915050565b6000819050919050565b61179781611784565b81146117a257600080fd5b50565b6000813590506117b48161178e565b92915050565b600080604083850312156117d1576117d061171c565b5b60006117df8582860161176f565b92505060206117f0858286016117a5565b9150509250929050565b60008115159050919050565b61180f816117fa565b82525050565b600060208201905061182a6000830184611806565b92915050565b61183981611784565b82525050565b60006020820190506118546000830184611830565b92915050565b6000806000606084860312156118735761187261171c565b5b60006118818682870161176f565b93505060206118928682870161176f565b92505060406118a3868287016117a5565b9150509250925092565b600060ff82169050919050565b6118c3816118ad565b82525050565b60006020820190506118de60008301846118ba565b92915050565b6000602082840312156118fa576118f961171c565b5b6000611908848285016117a5565b91505092915050565b6000602082840312156119275761192661171c565b5b60006119358482850161176f565b91505092915050565b600080fd5b600080fd5b7f4e487b7100000000000000000000000000000000000000000000000000000000600052604160045260246000fd5b611980826116a6565b810181811067ffffffffffffffff8211171561199f5761199e611948565b5b80604052505050565b60006119b2611712565b90506119be8282611977565b919050565b600067ffffffffffffffff8211156119de576119dd611948565b5b6119e7826116a6565b9050602081019050919050565b82818337600083830152505050565b6000611a16611a11846119c3565b6119a8565b905082815260208101848484011115611a3257611a31611943565b5b611a3d8482856119f4565b509392505050565b600082601f830112611a5a57611a5961193e565b5b8135611a6a848260208601611a03565b91505092915050565b60008060408385031215611a8a57611a8961171c565b5b6000611a988582860161176f565b925050602083013567ffffffffffffffff811115611ab957611ab8611721565b5b611ac585828601611a45565b9150509250929050565b600060208284031215611ae557611ae461171c565b5b600082013567ffffffffffffffff811115611b0357611b02611721565b5b611b0f84828501611a45565b91505092915050565b611b2181611746565b82525050565b6000602082019050611b3c6000830184611b18565b92915050565b60008060408385031215611b5957611b5861171c565b5b6000611b678582860161176f565b9250506020611b788582860161176f565b9150509250929050565b7f4e487b7100000000000000000000000000000000000000000000000000000000600052602260045260246000fd5b60006002820490506001821680611bc957607f821691505b602082108103611bdc57611bdb611b82565b5b50919050565b7f4e487b7100000000000000000000000000000000000000000000000000000000600052601160045260246000fd5b6000611c1c82611784565b9150611c2783611784565b9250828201905080821115611c3f57611c3e611be2565b5b92915050565b7f506c65617365205265676973746572206173206120506c617965720000000000600082015250565b6000611c7b601b8361166b565b9150611c8682611c45565b602082019050919050565b60006020820190508181036000830152611caa81611c6e565b9050919050565b60008190508160005260206000209050919050565b60006020601f8301049050919050565b600082821b905092915050565b600060088302611d137fffffffffffffffffffffffffffffffffffffffffffffffffffffffffffffffff82611cd6565b611d1d8683611cd6565b95508019841693508086168417925050509392505050565b6000819050919050565b6000611d5a611d55611d5084611784565b611d35565b611784565b9050919050565b6000819050919050565b611d7483611d3f565b611d88611d8082611d61565b848454611ce3565b825550505050565b600090565b611d9d611d90565b611da8818484611d6b565b505050565b5b81811015611dcc57611dc1600082611d95565b600181019050611dae565b5050565b601f821115611e1157611de281611cb1565b611deb84611cc6565b81016020851015611dfa578190505b611e0e611e0685611cc6565b830182611dad565b50505b505050565b600082821c905092915050565b6000611e3460001984600802611e16565b1980831691505092915050565b6000611e4d8383611e23565b9150826002028217905092915050565b611e6682611660565b67ffffffffffffffff811115611e7f57611e7e611948565b5b611e898254611bb1565b611e94828285611dd0565b600060209050601f831160018114611ec75760008415611eb5578287015190505b611ebf8582611e41565b865550611f27565b601f198416611ed586611cb1565b60005b82811015611efd57848901518255600182019150602085019450602081019050611ed8565b86831015611f1a5784890151611f16601f891682611e23565b8355505b6001600288020188555050505b505050505050565b600081905092915050565b60008154611f4781611bb1565b611f518186611f2f565b94506001821660008114611f6c5760018114611f8157611fb4565b60ff1983168652811515820286019350611fb4565b611f8a85611cb1565b60005b83811015611fac57815481890152600182019150602081019050611f8d565b838801955050505b50505092915050565b6000611fc98284611f3a565b915081905092915050565b6000611fdf82611660565b611fe98185611f2f565b9350611ff981856020860161167c565b80840191505092915050565b60006120118284611fd4565b915081905092915050565b7f496e76616c6964204974656d0000000000000000000000000000000000000000600082015250565b6000612052600c8361166b565b915061205d8261201c565b602082019050919050565b6000602082019050818103600083015261208181612045565b9050919050565b7f45524332303a2064656372656173656420616c6c6f77616e63652062656c6f7760008201527f207a65726f000000000000000000000000000000000000000000000000000000602082015250565b60006120e460258361166b565b91506120ef82612088565b604082019050919050565b60006020820190508181036000830152612113816120d7565b9050919050565b7f4f776e61626c653a206e6577206f776e657220697320746865207a65726f206160008201527f6464726573730000000000000000000000000000000000000000000000000000602082015250565b600061217660268361166b565b91506121818261211a565b604082019050919050565b600060208201905081810360008301526121a581612169565b9050919050565b7f45524332303a20617070726f76652066726f6d20746865207a65726f2061646460008201527f7265737300000000000000000000000000000000000000000000000000000000602082015250565b600061220860248361166b565b9150612213826121ac565b604082019050919050565b60006020820190508181036000830152612237816121fb565b9050919050565b7f45524332303a20617070726f766520746f20746865207a65726f20616464726560008201527f7373000000000000000000000000000000000000000000000000000000000000602082015250565b600061229a60228361166b565b91506122a58261223e565b604082019050919050565b600060208201905081810360008301526122c98161228d565b9050919050565b7f45524332303a20696e73756666696369656e7420616c6c6f77616e6365000000600082015250565b6000612306601d8361166b565b9150612311826122d0565b602082019050919050565b60006020820190508181036000830152612335816122f9565b9050919050565b7f45524332303a207472616e736665722066726f6d20746865207a65726f20616460008201527f6472657373000000000000000000000000000000000000000000000000000000602082015250565b600061239860258361166b565b91506123a38261233c565b604082019050919050565b600060208201905081810360008301526123c78161238b565b9050919050565b7f45524332303a207472616e7366657220746f20746865207a65726f206164647260008201527f6573730000000000000000000000000000000000000000000000000000000000602082015250565b600061242a60238361166b565b9150612435826123ce565b604082019050919050565b600060208201905081810360008301526124598161241d565b9050919050565b7f45524332303a207472616e7366657220616d6f756e742065786365656473206260008201527f616c616e63650000000000000000000000000000000000000000000000000000602082015250565b60006124bc60268361166b565b91506124c782612460565b604082019050919050565b600060208201905081810360008301526124eb816124af565b9050919050565b7f4f776e61626c653a2063616c6c6572206973206e6f7420746865206f776e6572600082015250565b600061252860208361166b565b9150612533826124f2565b602082019050919050565b600060208201905081810360008301526125578161251b565b9050919050565b7f45524332303a206d696e7420746f20746865207a65726f206164647265737300600082015250565b6000612594601f8361166b565b915061259f8261255e565b602082019050919050565b600060208201905081810360008301526125c381612587565b9050919050565b7f45524332303a206275726e2066726f6d20746865207a65726f2061646472657360008201527f7300000000000000000000000000000000000000000000000000000000000000602082015250565b600061262660218361166b565b9150612631826125ca565b604082019050919050565b6000602082019050818103600083015261265581612619565b9050919050565b7f45524332303a206275726e20616d6f756e7420657863656564732062616c616e60008201527f6365000000000000000000000000000000000000000000000000000000000000602082015250565b60006126b860228361166b565b91506126c38261265c565b604082019050919050565b600060208201905081810360008301526126e7816126ab565b905091905056fea2646970667358221220fd19c92ddb2e45b71a7e0a51b2b71ac80286a8476b7de59241573f41970205e064736f6c63430008120033",
  "linkReferences": {},
  "deployedLinkReferences": {}
}