{
  "_format": "hh-sol-artifact-1",
  "contractName": "DegenToken",
  "sourceName": "contracts/DegenToken.sol",
  "abi": [
    {
      "inputs": [],
      "stateMutability": "nonpayable",
      "type": "constructor"
    },
    {
      "inputs": [],
      "name": "InvalidItem",
      "type": "error"
    },
    {
      "anonymous": false,
      "inputs": [
        {
          "indexed": true,
          "internalType": "address",
          "name": "owner",
          "type": "address"
        },
        {
          "indexed": true,
          "internalType": "address",
          "name": "spender",
          "type": "address"
        },
        {
          "indexed": false,
          "internalType": "uint256",
          "name": "value",
          "type": "uint256"
        }
      ],
      "name": "Approval",
      "type": "event"
    },
    {
      "anonymous": false,
      "inputs": [
        {
          "indexed": true,
          "internalType": "address",
          "name": "previousOwner",
          "type": "address"
        },
        {
          "indexed": true,
          "internalType": "address",
          "name": "newOwner",
          "type": "address"
        }
      ],
      "name": "OwnershipTransferred",
      "type": "event"
    },
    {
      "anonymous": false,
      "inputs": [
        {
          "indexed": true,
          "internalType": "address",
          "name": "from",
          "type": "address"
        },
        {
          "indexed": true,
          "internalType": "address",
          "name": "to",
          "type": "address"
        },
        {
          "indexed": false,
          "internalType": "uint256",
          "name": "value",
          "type": "uint256"
        }
      ],
      "name": "Transfer",
      "type": "event"
    },
    {
      "inputs": [
        {
          "internalType": "address",
          "name": "owner",
          "type": "address"
        },
        {
          "internalType": "address",
          "name": "spender",
          "type": "address"
        }
      ],
      "name": "allowance",
      "outputs": [
        {
          "internalType": "uint256",
          "name": "",
          "type": "uint256"
        }
      ],
      "stateMutability": "view",
      "type": "function"
    },
    {
      "inputs": [
        {
          "internalType": "address",
          "name": "spender",
          "type": "address"
        },
        {
          "internalType": "uint256",
          "name": "amount",
          "type": "uint256"
        }
      ],
      "name": "approve",
      "outputs": [
        {
          "internalType": "bool",
          "name": "",
          "type": "bool"
        }
      ],
      "stateMutability": "nonpayable",
      "type": "function"
    },
    {
      "inputs": [
        {
          "internalType": "address",
          "name": "account",
          "type": "address"
        }
      ],
      "name": "balanceOf",
      "outputs": [
        {
          "internalType": "uint256",
          "name": "",
          "type": "uint256"
        }
      ],
      "stateMutability": "view",
      "type": "function"
    },
    {
      "inputs": [
        {
          "internalType": "uint256",
          "name": "value",
          "type": "uint256"
        }
      ],
      "name": "burn",
      "outputs": [],
      "stateMutability": "nonpayable",
      "type": "function"
    },
    {
      "inputs": [],
      "name": "decimals",
      "outputs": [
        {
          "internalType": "uint8",
          "name": "",
          "type": "uint8"
        }
      ],
      "stateMutability": "view",
      "type": "function"
    },
    {
      "inputs": [
        {
          "internalType": "address",
          "name": "spender",
          "type": "address"
        },
        {
          "internalType": "uint256",
          "name": "subtractedValue",
          "type": "uint256"
        }
      ],
      "name": "decreaseAllowance",
      "outputs": [
        {
          "internalType": "bool",
          "name": "",
          "type": "bool"
        }
      ],
      "stateMutability": "nonpayable",
      "type": "function"
    },
    {
      "inputs": [
        {
          "internalType": "address",
          "name": "_player",
          "type": "address"
        },
        {
          "internalType": "string",
          "name": "_item",
          "type": "string"
        }
      ],
      "name": "giveItem",
      "outputs": [],
      "stateMutability": "nonpayable",
      "type": "function"
    },
    {
      "inputs": [
        {
          "internalType": "address",
          "name": "spender",
          "type": "address"
        },
        {
          "internalType": "uint256",
          "name": "addedValue",
          "type": "uint256"
        }
      ],
      "name": "increaseAllowance",
      "outputs": [
        {
          "internalType": "bool",
          "name": "",
          "type": "bool"
        }
      ],
      "stateMutability": "nonpayable",
      "type": "function"
    },
    {
      "inputs": [
        {
          "internalType": "address",
          "name": "to",
          "type": "address"
        },
        {
          "internalType": "uint256",
          "name": "amount",
          "type": "uint256"
        }
      ],
      "name": "mint",
      "outputs": [],
      "stateMutability": "nonpayable",
      "type": "function"
    },
    {
      "inputs": [
        {
          "internalType": "address",
          "name": "_player",
          "type": "address"
        },
        {
          "internalType": "uint256",
          "name": "_newLevel",
          "type": "uint256"
        }
      ],
      "name": "moveLevel",
      "outputs": [],
      "stateMutability": "nonpayable",
      "type": "function"
    },
    {
      "inputs": [],
      "name": "name",
      "outputs": [
        {
          "internalType": "string",
          "name": "",
          "type": "string"
        }
      ],
      "stateMutability": "view",
      "type": "function"
    },
    {
      "inputs": [],
      "name": "owner",
      "outputs": [
        {
          "internalType": "address",
          "name": "",
          "type": "address"
        }
      ],
      "stateMutability": "view",
      "type": "function"
    },
    {
      "inputs": [
        {
          "internalType": "address",
          "name": "",
          "type": "address"
        }
      ],
      "name": "playerDetails",
      "outputs": [
        {
          "internalType": "address",
          "name": "account",
          "type": "address"
        },
        {
          "internalType": "uint256",
          "name": "level",
          "type": "uint256"
        },
        {
          "internalType": "string",
          "name": "item",
          "type": "string"
        }
      ],
      "stateMutability": "view",
      "type": "function"
    },
    {
      "inputs": [
        {
          "internalType": "address",
          "name": "",
          "type": "address"
        }
      ],
      "name": "playerExist",
      "outputs": [
        {
          "internalType": "bool",
          "name": "",
          "type": "bool"
        }
      ],
      "stateMutability": "view",
      "type": "function"
    },
    {
      "inputs": [],
      "name": "redeemTokens",
      "outputs": [],
      "stateMutability": "nonpayable",
      "type": "function"
    },
    {
      "inputs": [
        {
          "internalType": "address",
          "name": "newPlayer",
          "type": "address"
        }
      ],
      "name": "register",
      "outputs": [
        {
          "internalType": "bool",
          "name": "success",
          "type": "bool"
        }
      ],
      "stateMutability": "nonpayable",
      "type": "function"
    },
    {
      "inputs": [],
      "name": "renounceOwnership",
      "outputs": [],
      "stateMutability": "nonpayable",
      "type": "function"
    },
    {
      "inputs": [],
      "name": "returnItem",
      "outputs": [
        {
          "internalType": "string",
          "name": "it",
          "type": "string"
        }
      ],
      "stateMutability": "view",
      "type": "function"
    },
    {
      "inputs": [],
      "name": "symbol",
      "outputs": [
        {
          "internalType": "string",
          "name": "",
          "type": "string"
        }
      ],
      "stateMutability": "view",
      "type": "function"
    },
    {
      "inputs": [],
      "name": "totalSupply",
      "outputs": [
        {
          "internalType": "uint256",
          "name": "",
          "type": "uint256"
        }
      ],
      "stateMutability": "view",
      "type": "function"
    },
    {
      "inputs": [
        {
          "internalType": "address",
          "name": "to",
          "type": "address"
        },
        {
          "internalType": "uint256",
          "name": "amount",
          "type": "uint256"
        }
      ],
      "name": "transfer",
      "outputs": [
        {
          "internalType": "bool",
          "name": "",
          "type": "bool"
        }
      ],
      "stateMutability": "nonpayable",
      "type": "function"
    },
    {
      "inputs": [
        {
          "internalType": "address",
          "name": "from",
          "type": "address"
        },
        {
          "internalType": "address",
          "name": "to",
          "type": "address"
        },
        {
          "internalType": "uint256",
          "name": "amount",
          "type": "uint256"
        }
      ],
      "name": "transferFrom",
      "outputs": [
        {
          "internalType": "bool",
          "name": "",
          "type": "bool"
        }
      ],
      "stateMutability": "nonpayable",
      "type": "function"
    },
    {
      "inputs": [
        {
          "internalType": "address",
          "name": "newOwner",
          "type": "address"
        }
      ],
      "name": "transferOwnership",
      "outputs": [],
      "stateMutability": "nonpayable",
      "type": "function"
    }
  ],
  "bytecode": "0x60806040523480156200001157600080fd5b506040518060400160405280600581526020017f446567656e0000000000000000000000000000000000000000000000000000008152506040518060400160405280600381526020017f44474e000000000000000000000000000000000000000000000000000000000081525081600390816200008f919062000412565b508060049081620000a1919062000412565b505050620000c4620000b8620000ca60201b60201c565b620000d260201b60201c565b620004f9565b600033905090565b6000600560009054906101000a900473ffffffffffffffffffffffffffffffffffffffff16905081600560006101000a81548173ffffffffffffffffffffffffffffffffffffffff021916908373ffffffffffffffffffffffffffffffffffffffff1602179055508173ffffffffffffffffffffffffffffffffffffffff168173ffffffffffffffffffffffffffffffffffffffff167f8be0079c531659141344cd1fd0a4f28419497f9722a3daafe3b4186f6b6457e060405160405180910390a35050565b600081519050919050565b7f4e487b7100000000000000000000000000000000000000000000000000000000600052604160045260246000fd5b7f4e487b7100000000000000000000000000000000000000000000000000000000600052602260045260246000fd5b600060028204905060018216806200021a57607f821691505b60208210810362000230576200022f620001d2565b5b50919050565b60008190508160005260206000209050919050565b60006020601f8301049050919050565b600082821b905092915050565b6000600883026200029a7fffffffffffffffffffffffffffffffffffffffffffffffffffffffffffffffff826200025b565b620002a686836200025b565b95508019841693508086168417925050509392505050565b6000819050919050565b6000819050919050565b6000620002f3620002ed620002e784620002be565b620002c8565b620002be565b9050919050565b6000819050919050565b6200030f83620002d2565b620003276200031e82620002fa565b84845462000268565b825550505050565b600090565b6200033e6200032f565b6200034b81848462000304565b505050565b5b8181101562000373576200036760008262000334565b60018101905062000351565b5050565b601f821115620003c2576200038c8162000236565b62000397846200024b565b81016020851015620003a7578190505b620003bf620003b6856200024b565b83018262000350565b50505b505050565b600082821c905092915050565b6000620003e760001984600802620003c7565b1980831691505092915050565b6000620004028383620003d4565b9150826002028217905092915050565b6200041d8262000198565b67ffffffffffffffff811115620004395762000438620001a3565b5b62000445825462000201565b6200045282828562000377565b600060209050601f8311600181146200048a576000841562000475578287015190505b620004818582620003f4565b865550620004f1565b601f1984166200049a8662000236565b60005b82811015620004c4578489015182556001820191506020850194506020810190506200049d565b86831015620004e45784890151620004e0601f891682620003d4565b8355505b6001600288020188555050505b505050505050565b612ea580620005096000396000f3fe608060405234801561001057600080fd5b506004361061014d5760003560e01c8063715018a6116100c3578063a9059cbb1161007c578063a9059cbb146103b4578063c0d047f0146103e4578063dd62ed3e14610402578063e9a9c50c14610432578063f2fde38b1461043c578063fff07241146104585761014d565b8063715018a6146102f0578063727e0e36146102fa5780638c69e516146103165780638da5cb5b1461034857806395d89b4114610366578063a457c2d7146103845761014d565b80633950935111610115578063395093511461020c57806340c10f191461023c57806342966c68146102585780634420e486146102745780635c0bbd67146102a457806370a08231146102c05761014d565b806306fdde0314610152578063095ea7b31461017057806318160ddd146101a057806323b872dd146101be578063313ce567146101ee575b600080fd5b61015a610488565b6040516101679190611cd0565b60405180910390f35b61018a60048036038101906101859190611d9a565b61051a565b6040516101979190611df5565b60405180910390f35b6101a861053d565b6040516101b59190611e1f565b60405180910390f35b6101d860048036038101906101d39190611e3a565b610547565b6040516101e59190611df5565b60405180910390f35b6101f6610576565b6040516102039190611ea9565b60405180910390f35b61022660048036038101906102219190611d9a565b61057f565b6040516102339190611df5565b60405180910390f35b61025660048036038101906102519190611d9a565b6105b6565b005b610272600480360381019061026d9190611ec4565b61065f565b005b61028e60048036038101906102899190611ef1565b6106ff565b60405161029b9190611df5565b60405180910390f35b6102be60048036038101906102b99190611d9a565b610886565b005b6102da60048036038101906102d59190611ef1565b61097d565b6040516102e79190611e1f565b60405180910390f35b6102f86109c5565b005b610314600480360381019061030f9190612053565b6109d9565b005b610330600480360381019061032b9190611ef1565b610ace565b60405161033f939291906120be565b60405180910390f35b610350610ba0565b60405161035d91906120fc565b60405180910390f35b61036e610bca565b60405161037b9190611cd0565b60405180910390f35b61039e60048036038101906103999190611d9a565b610c5c565b6040516103ab9190611df5565b60405180910390f35b6103ce60048036038101906103c99190611d9a565b610cd3565b6040516103db9190611df5565b60405180910390f35b6103ec610cf6565b6040516103f99190611cd0565b60405180910390f35b61041c60048036038101906104179190612117565b610e43565b6040516104299190611e1f565b60405180910390f35b61043a610eca565b005b61045660048036038101906104519190611ef1565b611259565b005b610472600480360381019061046d9190611ef1565b6112dc565b60405161047f9190611df5565b60405180910390f35b60606003805461049790612186565b80601f01602080910402602001604051908101604052809291908181526020018280546104c390612186565b80156105105780601f106104e557610100808354040283529160200191610510565b820191906000526020600020905b8154815290600101906020018083116104f357829003601f168201915b5050505050905090565b6000806105256112fc565b9050610532818585611304565b600191505092915050565b6000600254905090565b6000806105526112fc565b905061055f8582856114cd565b61056a858585611559565b60019150509392505050565b60006012905090565b60008061058a6112fc565b90506105ab81858561059c8589610e43565b6105a691906121e6565b611304565b600191505092915050565b6105be6117cf565b60001515600660008473ffffffffffffffffffffffffffffffffffffffff1673ffffffffffffffffffffffffffffffffffffffff16815260200190815260200160002060009054906101000a900460ff16151503610651576040517f08c379a000000000000000000000000000000000000000000000000000000000815260040161064890612266565b60405180910390fd5b61065b828261184d565b5050565b60001515600660003373ffffffffffffffffffffffffffffffffffffffff1673ffffffffffffffffffffffffffffffffffffffff16815260200190815260200160002060009054906101000a900460ff161515036106f2576040517f08c379a00000000000000000000000000000000000000000000000000000000081526004016106e990612266565b60405180910390fd5b6106fc33826119a3565b50565b600060011515600660008473ffffffffffffffffffffffffffffffffffffffff1673ffffffffffffffffffffffffffffffffffffffff16815260200190815260200160002060009054906101000a900460ff16151503610794576040517f08c379a000000000000000000000000000000000000000000000000000000000815260040161078b906122d2565b60405180910390fd5b6000600760003373ffffffffffffffffffffffffffffffffffffffff1673ffffffffffffffffffffffffffffffffffffffff16815260200190815260200160002090506001600660008573ffffffffffffffffffffffffffffffffffffffff1673ffffffffffffffffffffffffffffffffffffffff16815260200190815260200160002060006101000a81548160ff021916908315150217905550828160000160006101000a81548173ffffffffffffffffffffffffffffffffffffffff021916908373ffffffffffffffffffffffffffffffffffffffff160217905550600181600101819055506001915050919050565b61088e6117cf565b60001515600660003373ffffffffffffffffffffffffffffffffffffffff1673ffffffffffffffffffffffffffffffffffffffff16815260200190815260200160002060009054906101000a900460ff16151503610921576040517f08c379a000000000000000000000000000000000000000000000000000000000815260040161091890612266565b60405180910390fd5b6000600760008473ffffffffffffffffffffffffffffffffffffffff1673ffffffffffffffffffffffffffffffffffffffff168152602001908152602001600020905081816001018190555061097833603261184d565b505050565b60008060008373ffffffffffffffffffffffffffffffffffffffff1673ffffffffffffffffffffffffffffffffffffffff168152602001908152602001600020549050919050565b6109cd6117cf565b6109d76000611b70565b565b6109e16117cf565b60001515600660008473ffffffffffffffffffffffffffffffffffffffff1673ffffffffffffffffffffffffffffffffffffffff16815260200190815260200160002060009054906101000a900460ff16151503610a74576040517f08c379a0000000000000000000000000000000000000000000000000000000008152600401610a6b90612266565b60405180910390fd5b6000600760008473ffffffffffffffffffffffffffffffffffffffff1673ffffffffffffffffffffffffffffffffffffffff168152602001908152602001600020905081816002019081610ac8919061249e565b50505050565b60076020528060005260406000206000915090508060000160009054906101000a900473ffffffffffffffffffffffffffffffffffffffff1690806001015490806002018054610b1d90612186565b80601f0160208091040260200160405190810160405280929190818152602001828054610b4990612186565b8015610b965780601f10610b6b57610100808354040283529160200191610b96565b820191906000526020600020905b815481529060010190602001808311610b7957829003601f168201915b5050505050905083565b6000600560009054906101000a900473ffffffffffffffffffffffffffffffffffffffff16905090565b606060048054610bd990612186565b80601f0160208091040260200160405190810160405280929190818152602001828054610c0590612186565b8015610c525780601f10610c2757610100808354040283529160200191610c52565b820191906000526020600020905b815481529060010190602001808311610c3557829003601f168201915b5050505050905090565b600080610c676112fc565b90506000610c758286610e43565b905083811015610cba576040517f08c379a0000000000000000000000000000000000000000000000000000000008152600401610cb1906125e2565b60405180910390fd5b610cc78286868403611304565b60019250505092915050565b600080610cde6112fc565b9050610ceb818585611559565b600191505092915050565b60606000600760003373ffffffffffffffffffffffffffffffffffffffff1673ffffffffffffffffffffffffffffffffffffffff1681526020019081526020016000206040518060600160405290816000820160009054906101000a900473ffffffffffffffffffffffffffffffffffffffff1673ffffffffffffffffffffffffffffffffffffffff1673ffffffffffffffffffffffffffffffffffffffff16815260200160018201548152602001600282018054610db490612186565b80601f0160208091040260200160405190810160405280929190818152602001828054610de090612186565b8015610e2d5780601f10610e0257610100808354040283529160200191610e2d565b820191906000526020600020905b815481529060010190602001808311610e1057829003601f168201915b5050505050815250509050806040015191505090565b6000600160008473ffffffffffffffffffffffffffffffffffffffff1673ffffffffffffffffffffffffffffffffffffffff16815260200190815260200160002060008373ffffffffffffffffffffffffffffffffffffffff1673ffffffffffffffffffffffffffffffffffffffff16815260200190815260200160002054905092915050565b6000600760003373ffffffffffffffffffffffffffffffffffffffff1673ffffffffffffffffffffffffffffffffffffffff1681526020019081526020016000206040518060600160405290816000820160009054906101000a900473ffffffffffffffffffffffffffffffffffffffff1673ffffffffffffffffffffffffffffffffffffffff1673ffffffffffffffffffffffffffffffffffffffff16815260200160018201548152602001600282018054610f8690612186565b80601f0160208091040260200160405190810160405280929190818152602001828054610fb290612186565b8015610fff5780601f10610fd457610100808354040283529160200191610fff565b820191906000526020600020905b815481529060010190602001808311610fe257829003601f168201915b505050505081525050905060405160200161101990612659565b604051602081830303815290604052805190602001208160400151604051602001611044919061269f565b604051602081830303815290604052805190602001200361106c5761106b3361019061184d565b5b60405160200161107b90612702565b6040516020818303038152906040528051906020012081604001516040516020016110a6919061269f565b60405160208183030381529060405280519060200120036110ce576110cd336103e861184d565b5b6040516020016110dd90612763565b604051602081830303815290604052805190602001208160400151604051602001611108919061269f565b60405160208183030381529060405280519060200120036111305761112f336104b061184d565b5b60405160200161113f906127c4565b60405160208183030381529060405280519060200120816040015160405160200161116a919061269f565b604051602081830303815290604052805190602001200361119257611191336105dc61184d565b5b6040516020016111a190612825565b6040516020818303038152906040528051906020012081604001516040516020016111cc919061269f565b60405160208183030381529060405280519060200120036111f4576111f3336107d061184d565b5b60405160200161120390612886565b60405160208183030381529060405280519060200120816040015160405160200161122e919061269f565b6040516020818303038152906040528051906020012003611256576112553361070861184d565b5b50565b6112616117cf565b600073ffffffffffffffffffffffffffffffffffffffff168173ffffffffffffffffffffffffffffffffffffffff16036112d0576040517f08c379a00000000000000000000000000000000000000000000000000000000081526004016112c79061290d565b60405180910390fd5b6112d981611b70565b50565b60066020528060005260406000206000915054906101000a900460ff1681565b600033905090565b600073ffffffffffffffffffffffffffffffffffffffff168373ffffffffffffffffffffffffffffffffffffffff1603611373576040517f08c379a000000000000000000000000000000000000000000000000000000000815260040161136a9061299f565b60405180910390fd5b600073ffffffffffffffffffffffffffffffffffffffff168273ffffffffffffffffffffffffffffffffffffffff16036113e2576040517f08c379a00000000000000000000000000000000000000000000000000000000081526004016113d990612a31565b60405180910390fd5b80600160008573ffffffffffffffffffffffffffffffffffffffff1673ffffffffffffffffffffffffffffffffffffffff16815260200190815260200160002060008473ffffffffffffffffffffffffffffffffffffffff1673ffffffffffffffffffffffffffffffffffffffff168152602001908152602001600020819055508173ffffffffffffffffffffffffffffffffffffffff168373ffffffffffffffffffffffffffffffffffffffff167f8c5be1e5ebec7d5bd14f71427d1e84f3dd0314c0f7b2291e5b200ac8c7c3b925836040516114c09190611e1f565b60405180910390a3505050565b60006114d98484610e43565b90507fffffffffffffffffffffffffffffffffffffffffffffffffffffffffffffffff81146115535781811015611545576040517f08c379a000000000000000000000000000000000000000000000000000000000815260040161153c90612a9d565b60405180910390fd5b6115528484848403611304565b5b50505050565b600073ffffffffffffffffffffffffffffffffffffffff168373ffffffffffffffffffffffffffffffffffffffff16036115c8576040517f08c379a00000000000000000000000000000000000000000000000000000000081526004016115bf90612b2f565b60405180910390fd5b600073ffffffffffffffffffffffffffffffffffffffff168273ffffffffffffffffffffffffffffffffffffffff1603611637576040517f08c379a000000000000000000000000000000000000000000000000000000000815260040161162e90612bc1565b60405180910390fd5b611642838383611c36565b60008060008573ffffffffffffffffffffffffffffffffffffffff1673ffffffffffffffffffffffffffffffffffffffff168152602001908152602001600020549050818110156116c8576040517f08c379a00000000000000000000000000000000000000000000000000000000081526004016116bf90612c53565b60405180910390fd5b8181036000808673ffffffffffffffffffffffffffffffffffffffff1673ffffffffffffffffffffffffffffffffffffffff16815260200190815260200160002081905550816000808573ffffffffffffffffffffffffffffffffffffffff1673ffffffffffffffffffffffffffffffffffffffff168152602001908152602001600020600082825401925050819055508273ffffffffffffffffffffffffffffffffffffffff168473ffffffffffffffffffffffffffffffffffffffff167fddf252ad1be2c89b69c2b068fc378daa952ba7f163c4a11628f55a4df523b3ef846040516117b69190611e1f565b60405180910390a36117c9848484611c3b565b50505050565b6117d76112fc565b73ffffffffffffffffffffffffffffffffffffffff166117f5610ba0565b73ffffffffffffffffffffffffffffffffffffffff161461184b576040517f08c379a000000000000000000000000000000000000000000000000000000000815260040161184290612cbf565b60405180910390fd5b565b600073ffffffffffffffffffffffffffffffffffffffff168273ffffffffffffffffffffffffffffffffffffffff16036118bc576040517f08c379a00000000000000000000000000000000000000000000000000000000081526004016118b390612d2b565b60405180910390fd5b6118c860008383611c36565b80600260008282546118da91906121e6565b92505081905550806000808473ffffffffffffffffffffffffffffffffffffffff1673ffffffffffffffffffffffffffffffffffffffff168152602001908152602001600020600082825401925050819055508173ffffffffffffffffffffffffffffffffffffffff16600073ffffffffffffffffffffffffffffffffffffffff167fddf252ad1be2c89b69c2b068fc378daa952ba7f163c4a11628f55a4df523b3ef8360405161198b9190611e1f565b60405180910390a361199f60008383611c3b565b5050565b600073ffffffffffffffffffffffffffffffffffffffff168273ffffffffffffffffffffffffffffffffffffffff1603611a12576040517f08c379a0000000000000000000000000000000000000000000000000000000008152600401611a0990612dbd565b60405180910390fd5b611a1e82600083611c36565b60008060008473ffffffffffffffffffffffffffffffffffffffff1673ffffffffffffffffffffffffffffffffffffffff16815260200190815260200160002054905081811015611aa4576040517f08c379a0000000000000000000000000000000000000000000000000000000008152600401611a9b90612e4f565b60405180910390fd5b8181036000808573ffffffffffffffffffffffffffffffffffffffff1673ffffffffffffffffffffffffffffffffffffffff1681526020019081526020016000208190555081600260008282540392505081905550600073ffffffffffffffffffffffffffffffffffffffff168373ffffffffffffffffffffffffffffffffffffffff167fddf252ad1be2c89b69c2b068fc378daa952ba7f163c4a11628f55a4df523b3ef84604051611b579190611e1f565b60405180910390a3611b6b83600084611c3b565b505050565b6000600560009054906101000a900473ffffffffffffffffffffffffffffffffffffffff16905081600560006101000a81548173ffffffffffffffffffffffffffffffffffffffff021916908373ffffffffffffffffffffffffffffffffffffffff1602179055508173ffffffffffffffffffffffffffffffffffffffff168173ffffffffffffffffffffffffffffffffffffffff167f8be0079c531659141344cd1fd0a4f28419497f9722a3daafe3b4186f6b6457e060405160405180910390a35050565b505050565b505050565b600081519050919050565b600082825260208201905092915050565b60005b83811015611c7a578082015181840152602081019050611c5f565b60008484015250505050565b6000601f19601f8301169050919050565b6000611ca282611c40565b611cac8185611c4b565b9350611cbc818560208601611c5c565b611cc581611c86565b840191505092915050565b60006020820190508181036000830152611cea8184611c97565b905092915050565b6000604051905090565b600080fd5b600080fd5b600073ffffffffffffffffffffffffffffffffffffffff82169050919050565b6000611d3182611d06565b9050919050565b611d4181611d26565b8114611d4c57600080fd5b50565b600081359050611d5e81611d38565b92915050565b6000819050919050565b611d7781611d64565b8114611d8257600080fd5b50565b600081359050611d9481611d6e565b92915050565b60008060408385031215611db157611db0611cfc565b5b6000611dbf85828601611d4f565b9250506020611dd085828601611d85565b9150509250929050565b60008115159050919050565b611def81611dda565b82525050565b6000602082019050611e0a6000830184611de6565b92915050565b611e1981611d64565b82525050565b6000602082019050611e346000830184611e10565b92915050565b600080600060608486031215611e5357611e52611cfc565b5b6000611e6186828701611d4f565b9350506020611e7286828701611d4f565b9250506040611e8386828701611d85565b9150509250925092565b600060ff82169050919050565b611ea381611e8d565b82525050565b6000602082019050611ebe6000830184611e9a565b92915050565b600060208284031215611eda57611ed9611cfc565b5b6000611ee884828501611d85565b91505092915050565b600060208284031215611f0757611f06611cfc565b5b6000611f1584828501611d4f565b91505092915050565b600080fd5b600080fd5b7f4e487b7100000000000000000000000000000000000000000000000000000000600052604160045260246000fd5b611f6082611c86565b810181811067ffffffffffffffff82111715611f7f57611f7e611f28565b5b80604052505050565b6000611f92611cf2565b9050611f9e8282611f57565b919050565b600067ffffffffffffffff821115611fbe57611fbd611f28565b5b611fc782611c86565b9050602081019050919050565b82818337600083830152505050565b6000611ff6611ff184611fa3565b611f88565b90508281526020810184848401111561201257612011611f23565b5b61201d848285611fd4565b509392505050565b600082601f83011261203a57612039611f1e565b5b813561204a848260208601611fe3565b91505092915050565b6000806040838503121561206a57612069611cfc565b5b600061207885828601611d4f565b925050602083013567ffffffffffffffff81111561209957612098611d01565b5b6120a585828601612025565b9150509250929050565b6120b881611d26565b82525050565b60006060820190506120d360008301866120af565b6120e06020830185611e10565b81810360408301526120f28184611c97565b9050949350505050565b600060208201905061211160008301846120af565b92915050565b6000806040838503121561212e5761212d611cfc565b5b600061213c85828601611d4f565b925050602061214d85828601611d4f565b9150509250929050565b7f4e487b7100000000000000000000000000000000000000000000000000000000600052602260045260246000fd5b6000600282049050600182168061219e57607f821691505b6020821081036121b1576121b0612157565b5b50919050565b7f4e487b7100000000000000000000000000000000000000000000000000000000600052601160045260246000fd5b60006121f182611d64565b91506121fc83611d64565b9250828201905080821115612214576122136121b7565b5b92915050565b7f506c65617365205265676973746572206173206120506c617965720000000000600082015250565b6000612250601b83611c4b565b915061225b8261221a565b602082019050919050565b6000602082019050818103600083015261227f81612243565b9050919050565b7f416c726561647920526567697374657265640000000000000000000000000000600082015250565b60006122bc601283611c4b565b91506122c782612286565b602082019050919050565b600060208201905081810360008301526122eb816122af565b9050919050565b60008190508160005260206000209050919050565b60006020601f8301049050919050565b600082821b905092915050565b6000600883026123547fffffffffffffffffffffffffffffffffffffffffffffffffffffffffffffffff82612317565b61235e8683612317565b95508019841693508086168417925050509392505050565b6000819050919050565b600061239b61239661239184611d64565b612376565b611d64565b9050919050565b6000819050919050565b6123b583612380565b6123c96123c1826123a2565b848454612324565b825550505050565b600090565b6123de6123d1565b6123e98184846123ac565b505050565b5b8181101561240d576124026000826123d6565b6001810190506123ef565b5050565b601f82111561245257612423816122f2565b61242c84612307565b8101602085101561243b578190505b61244f61244785612307565b8301826123ee565b50505b505050565b600082821c905092915050565b600061247560001984600802612457565b1980831691505092915050565b600061248e8383612464565b9150826002028217905092915050565b6124a782611c40565b67ffffffffffffffff8111156124c0576124bf611f28565b5b6124ca8254612186565b6124d5828285612411565b600060209050601f83116001811461250857600084156124f6578287015190505b6125008582612482565b865550612568565b601f198416612516866122f2565b60005b8281101561253e57848901518255600182019150602085019450602081019050612519565b8683101561255b5784890151612557601f891682612464565b8355505b6001600288020188555050505b505050505050565b7f45524332303a2064656372656173656420616c6c6f77616e63652062656c6f7760008201527f207a65726f000000000000000000000000000000000000000000000000000000602082015250565b60006125cc602583611c4b565b91506125d782612570565b604082019050919050565b600060208201905081810360008301526125fb816125bf565b9050919050565b600081905092915050565b7f53757065724865726f0000000000000000000000000000000000000000000000600082015250565b6000612643600983612602565b915061264e8261260d565b600982019050919050565b600061266482612636565b9150819050919050565b600061267982611c40565b6126838185612602565b9350612693818560208601611c5c565b80840191505092915050565b60006126ab828461266e565b915081905092915050565b7f4265737456696c6c69616e000000000000000000000000000000000000000000600082015250565b60006126ec600b83612602565b91506126f7826126b6565b600b82019050919050565b600061270d826126df565b9150819050919050565b7f4869676865737457696e00000000000000000000000000000000000000000000600082015250565b600061274d600a83612602565b915061275882612717565b600a82019050919050565b600061276e82612740565b9150819050919050565b7f426573744361707461696e000000000000000000000000000000000000000000600082015250565b60006127ae600b83612602565b91506127b982612778565b600b82019050919050565b60006127cf826127a1565b9150819050919050565b7f546f7047756e6e65720000000000000000000000000000000000000000000000600082015250565b600061280f600983612602565b915061281a826127d9565b600982019050919050565b600061283082612802565b9150819050919050565b7f467265736846696e697368657200000000000000000000000000000000000000600082015250565b6000612870600d83612602565b915061287b8261283a565b600d82019050919050565b600061289182612863565b9150819050919050565b7f4f776e61626c653a206e6577206f776e657220697320746865207a65726f206160008201527f6464726573730000000000000000000000000000000000000000000000000000602082015250565b60006128f7602683611c4b565b91506129028261289b565b604082019050919050565b60006020820190508181036000830152612926816128ea565b9050919050565b7f45524332303a20617070726f76652066726f6d20746865207a65726f2061646460008201527f7265737300000000000000000000000000000000000000000000000000000000602082015250565b6000612989602483611c4b565b91506129948261292d565b604082019050919050565b600060208201905081810360008301526129b88161297c565b9050919050565b7f45524332303a20617070726f766520746f20746865207a65726f20616464726560008201527f7373000000000000000000000000000000000000000000000000000000000000602082015250565b6000612a1b602283611c4b565b9150612a26826129bf565b604082019050919050565b60006020820190508181036000830152612a4a81612a0e565b9050919050565b7f45524332303a20696e73756666696369656e7420616c6c6f77616e6365000000600082015250565b6000612a87601d83611c4b565b9150612a9282612a51565b602082019050919050565b60006020820190508181036000830152612ab681612a7a565b9050919050565b7f45524332303a207472616e736665722066726f6d20746865207a65726f20616460008201527f6472657373000000000000000000000000000000000000000000000000000000602082015250565b6000612b19602583611c4b565b9150612b2482612abd565b604082019050919050565b60006020820190508181036000830152612b4881612b0c565b9050919050565b7f45524332303a207472616e7366657220746f20746865207a65726f206164647260008201527f6573730000000000000000000000000000000000000000000000000000000000602082015250565b6000612bab602383611c4b565b9150612bb682612b4f565b604082019050919050565b60006020820190508181036000830152612bda81612b9e565b9050919050565b7f45524332303a207472616e7366657220616d6f756e742065786365656473206260008201527f616c616e63650000000000000000000000000000000000000000000000000000602082015250565b6000612c3d602683611c4b565b9150612c4882612be1565b604082019050919050565b60006020820190508181036000830152612c6c81612c30565b9050919050565b7f4f776e61626c653a2063616c6c6572206973206e6f7420746865206f776e6572600082015250565b6000612ca9602083611c4b565b9150612cb482612c73565b602082019050919050565b60006020820190508181036000830152612cd881612c9c565b9050919050565b7f45524332303a206d696e7420746f20746865207a65726f206164647265737300600082015250565b6000612d15601f83611c4b565b9150612d2082612cdf565b602082019050919050565b60006020820190508181036000830152612d4481612d08565b9050919050565b7f45524332303a206275726e2066726f6d20746865207a65726f2061646472657360008201527f7300000000000000000000000000000000000000000000000000000000000000602082015250565b6000612da7602183611c4b565b9150612db282612d4b565b604082019050919050565b60006020820190508181036000830152612dd681612d9a565b9050919050565b7f45524332303a206275726e20616d6f756e7420657863656564732062616c616e60008201527f6365000000000000000000000000000000000000000000000000000000000000602082015250565b6000612e39602283611c4b565b9150612e4482612ddd565b604082019050919050565b60006020820190508181036000830152612e6881612e2c565b905091905056fea264697066735822122067962e1992ac366484f5e3db17da9c3c495488ba420769d1f02905948776e63964736f6c63430008120033",
  "linkReferences": {},
  "deployedLinkReferences": {}
}